:020000040800F2
:1000000000500020E1E3000831E40008ED2B000877
:1000100000000000000000000000000000000000E0
:1000200000000000000000000000000031E40008B3
:10003000000000000000000031E4000845C4000892
:1000400031E4000831E4000845BC000831E4000850
:1000500031E400081DB900082DB900083DB90008B9
:1000600031E4000831E40008E1C2000831E400088E
:1000700031E4000875C0000831E4000831E40008EC
:1000800031E4000831E4000831E400080000000019
:1000900031E4000831E4000831E4000831E40008EC
:1000A00031E4000831E4000831E4000831E40008DC
:1000B00031E4000831E4000831E4000831E40008CC
:1000C00010B5064C2378002B07D1054B002B02D02E
:1000D000044800E000BF0123237010BD000200208F
:1000E000000000002CEE0008044B10B5002B03D0DC
:1000F0000349044800E000BF10BDC04600000000F6
:10010000040200202CEE00080023C25C0133002A08
:10011000FBD1581E7047000002B4714649084900DF
:10012000095C49008E4402BC7047C04603B4714666
:10013000490840004900095E49008E4403BC7047ED
:1001400003B47146490840004900095A49008E44E9
:1001500003BC7047002243088B4274D303098B42CF
:100160005FD3030A8B4244D3030B8B4228D3030C87
:100170008B420DD3FF22090212BA030C8B4202D329
:100180001212090265D0030B8B4219D300E0090A51
:10019000C30B8B4201D3CB03C01A5241830B8B425A
:1001A00001D38B03C01A5241430B8B4201D34B0343
:1001B000C01A5241030B8B4201D30B03C01A5241A8
:1001C000C30A8B4201D3CB02C01A5241830A8B422D
:1001D00001D38B02C01A5241430A8B4201D34B0216
:1001E000C01A5241030A8B4201D30B02C01A52417A
:1001F000CDD2C3098B4201D3CB01C01A524183092E
:100200008B4201D38B01C01A524143098B4201D367
:100210004B01C01A524103098B4201D30B01C01A92
:100220005241C3088B4201D3CB00C01A524183080C
:100230008B4201D38B00C01A524143088B4201D339
:100240004B00C01A5241411A00D201465241104699
:100250007047FFE701B5002000F0F0F802BDC0468E
:100260000029F7D076E7704703460B437FD400227E
:1002700043088B4274D303098B425FD3030A8B423A
:1002800044D3030B8B4228D3030C8B420DD3FF22A4
:10029000090212BA030C8B4202D31212090265D072
:1002A000030B8B4219D300E0090AC30B8B4201D325
:1002B000CB03C01A5241830B8B4201D38B03C01A6C
:1002C0005241430B8B4201D34B03C01A5241030BE3
:1002D0008B4201D30B03C01A5241C30A8B4201D394
:1002E000CB02C01A5241830A8B4201D38B02C01A3F
:1002F0005241430A8B4201D34B02C01A5241030AB6
:100300008B4201D30B02C01A5241CDD2C3098B429A
:1003100001D3CB01C01A524183098B4201D38B0117
:10032000C01A524143098B4201D34B01C01A5241BA
:1003300003098B4201D30B01C01A5241C3088B42FF
:1003400001D3CB00C01A524183088B4201D38B00EA
:10035000C01A524143088B4201D34B00C01A52418C
:10036000411A00D201465241104670475DE0CA0F63
:1003700000D04942031000D34042534000229C4623
:1003800003098B422DD3030A8B4212D3FC2289012D
:1003900012BA030A8B420CD3890192118B4208D303
:1003A000890192118B4204D389013AD0921100E065
:1003B0008909C3098B4201D3CB01C01A5241830979
:1003C0008B4201D38B01C01A524143098B4201D3A6
:1003D0004B01C01A524103098B4201D30B01C01AD1
:1003E0005241C3088B4201D3CB00C01A524183084B
:1003F0008B4201D38B00C01A5241D9D243088B42A1
:1004000001D34B00C01A5241411A00D20146634643
:1004100052415B10104601D34042002B00D54942A7
:10042000704763465B1000D3404201B5002000F0E6
:1004300005F802BD0029F8D016E770477047C0469E
:100440008446101C62468C46191C634600E0C04678
:100450001FB501F093FB002801D40021C8421FBD45
:1004600010B501F0DDFA4042013010BD10B501F0C9
:1004700085FB002801DB002010BD012010BDC04617
:1004800010B501F07BFB002801DD002010BD01202C
:1004900010BDC04610B501F0FFFA002801DC0020B5
:1004A00010BD012010BDC04610B501F0F5FA0028BE
:1004B00001DA002010BD012010BDC046002B11D173
:1004C000002A0FD1002900D1002802D00021C94301
:1004D000081C07B4024802A14018029003BDC046A0
:1004E0005DFFFFFF03B4684601B5029800F03CF8D9
:1004F000019B9E4602B00CBC7047C0469E2110B5C1
:10050000C905041C02F064FA002803D1201C00F085
:10051000D9FB10BD9E21201CC90500F00BFA00F08C
:10052000D1FB80231B069C466044F2E770B5002295
:100530000C4B04000D00FFF7B7FF002804D120008A
:10054000290002F089F970BD064B00222000290025
:1005500001F0F0FD02F080F980231B069C46604408
:10056000F1E7C0460000E041F0B557464E4645462B
:10057000DE46E0B504000D009246994683B08B42FA
:1005800030D82DD04946504602F04AFA29000600DC
:10059000200002F045FA331A9846203B9B4633D49C
:1005A0005A465346934042461F00534693401E000E
:1005B000AF423AD8AF4200D178E05B46A41BBD41C0
:1005C000002B00DA75E00022002300920193012342
:1005D0005A4693400193012342469340009328E0FA
:1005E0008242CFD900220023009201930C9B002B62
:1005F00001D01C605D600098019903B0F0BCBB465F
:10060000B246A946A046F0BD424620239B1A524658
:10061000DA40414613004A468A40170042461F43CB
:10062000534693401E00AF42C4D9002200230092DB
:1006300001934346002BD9D0FB0772081A43464664
:100640007B080EE0AB4201D1A2420CD8A41A9D4116
:10065000012024196D410021013E24184D41002E36
:1006600006D0AB42EED9013E24196D41002EF8D1DF
:10067000009801995B4600196941002B24DB2B008F
:100680005A464446D3402A00E2401C005B4615000F
:10069000002B2ADB26009E40330026004746BE4042
:1006A0003200801A9941009001919FE7A342BCD883
:1006B00083E74246202300219B1A002200910192E9
:1006C0000122DA40019286E7424620239B1A2A0043
:1006D00046469A402300F340444613432A00E24032
:1006E0001C005B461500002BD4DA42462F00202365
:1006F000260097409B1ADE403B003343CDE7C046BF
:10070000F8B557464E464546DE464402E0B545003C
:100710000F1C640A2D0EC60F002D47D0FF2D4DD0A3
:10072000002380209A469B46E400C00404437F3D9A
:100730007802430A99467A00FB0F9846120E4B4600
:1007400044D0FF2A11D0D8008023DB04034399460C
:1007500000207F3AAD18474653467740691C0F2B5F
:100760003FD8724A9B00D3589F46FF35002B00D0DC
:1007700079E0524602231A4392460220EBE74746AD
:100780004C4683465B46022B28D0032B00D1C6E0A3
:10079000012B4FD100200024C005FF072043384320
:1007A000F0BCBB46B246A946A046F8BD002C71D1AC
:1007B00004239A46033B00259B46B9E7002C63D1EE
:1007C00008239A46063BFF259B46B1E7002B50D1F4
:1007D000524601331A4392460120BCE7FF20002411
:1007E000DAE74846260C2404220C0404240C4B4669
:1007F00020001B0C504374435A435E431219030CF0
:100800009B189C4203D980225202944666440004FD
:100810001A04000C12189401601E84411B0C920EE5
:100820009B1914439B011C431B0172D501206308D3
:1008300004401C4308007F3000283CDD630704D0DF
:100840000F232340042B00D00434230103D580312F
:100850000800374B1C40FE28C0DCA401640AC0B26B
:100860009AE737008EE7524603231A439246032045
:1008700071E7484602F0B6F84A46431F9A402D1ADF
:1008800091460020763D66E70C239A46093BFF25FA
:100890009B464DE7200002F0A5F87625431F9C40BB
:1008A00000236D429A469B462D1A41E7802400277B
:1008B000FF20E40370E701231B1A1B2B00DD69E70F
:1008C0009E3120008C40D840631E9C410443630746
:1008D00004D00F232340042B00D0043463011AD525
:1008E0000120002458E78020C003044209D04B4671
:1008F000034206D14C46044364024746FF20640A83
:100900004AE78020C003044364023700FF20640AE2
:1009100042E729008EE7A4010020640A3CE780201A
:10092000C00304436402FF20640A35E7D0EE0008E8
:10093000FFFFFFF7F0B54646D6464F4643025B0A37
:10094000DA0094464A02C0B54400560A051CB04677
:10095000240E4E0092091F0020009246ED0F360E25
:10096000C90FFF2E00D17FE0012251408D4251D0AE
:10097000A21B9146002A00DC7EE0002E00D199E007
:10098000FF2C00D18CE080235246DB041A439246B0
:100990004A4601231B2A08DC53462021D340891AEA
:1009A00052468A40511E8A4113436246D31A5A0165
:1009B00000D4F3E09B019E09300002F013F80538E3
:1009C0008640844200DDF7E03200041B2020013421
:1009D000E240041BA64033005E1EB34100241343D3
:1009E0005A0704D00F221A40042A00D004335A01B7
:1009F00000D4D6E0621CFE2C00D1DAE09B015F0A35
:100A0000D0B2C0053843ED072843E0BCBA46B14632
:100A1000A846F0BDA21B9146002A63DD002E00D13E
:100A200099E0FF2C3CD080235246DB041A439246C7
:100A30004A4601231B2A08DC53462021D340891A49
:100A400052468A40511E8A41134363445A0100D4DE
:100A5000A4E00134FF2C00D1ABE0012297491A40F9
:100A60005B080B401343BBE7002A32D08D4235D0E0
:100A7000FF2252429146A1444A46002A51D0301BDF
:100A8000002C00D09CE06346002B00D1DFE0013851
:100A9000002800D1F7E0FF2E00D099E00D0043467A
:100AA000002B00D185E08027FF031F437F02FF203A
:100AB0007F0AA6E75246002A74D00122524290468D
:100AC000C1444A46002A00D1C8E0FF2C00D05FE7AD
:100AD000E6E701225140A94200D049E7FF225242F5
:100AE0009146A1444A46002A43D0311B002C00D134
:100AF0008CE0FF2E00D192E080236246DB041A4393
:100B0000944601231B2909DC202063466246CB4022
:100B1000411A8A401100481E81410B43340053445E
:100B200094E7FE22661C324264D1002C00D082E0A1
:100B30006346002B00D1ABE05346002B00D160E7A9
:100B4000634652469B1A5A0100D4AAE063465246B5
:100B50000D00D31A44E75246002A23D00122524204
:100B60009046C1444A46002A75D0FF2C00D05FE76A
:100B700096E7FE260134264253D1002872D16346FF
:100B8000002B00D193E05346002B00D139E763449A
:100B900000245A0102D54A4A013413405A0700D0B2
:100BA00020E7DB08FF2C00D17AE75B025F0AE0B2A6
:100BB00027E7FF20002724E7414B241A33400FE7A3
:100BC000FF2E00D16AE780236246DB041A43944675
:100BD00001231B2809DC202463466246C340201AF7
:100BE00082401000441EA041034352460D003400D1
:100BF000D31ADCE6634652469E1A730117D4002EC0
:100C000000D0D9E6002500200027FAE66346002B35
:100C100044D0013900294CD0FF2E00D071E7434663
:100C20003EE7FF2CC5D0524662445308B6E7634600
:100C30000D00D61AC0E66246002A16D15346002B94
:100C400000D02BE780270025FF20FF03D9E60D0009
:100C500043463400A6E753466344F7E663465246EC
:100C60009B1AA4E66246002AD9D05246002A00D137
:100C700016E78022D203134200D111E7404610420A
:100C800000D00DE70AE752460D003400D31A8EE675
:100C90005346002B08D00D004746B2E643463400C9
:100CA00080E7002B00D079E700250027A9E647461A
:100CB000A7E6534634006344C8E6C046FFFFFF7D05
:100CC000FFFFFFFB41024200C30F490A0020120E42
:100CD0007E2A03D99D2A02D9094A98187047802094
:100CE00000040143952A07DC9620821AD14048422D
:100CF000002BF3D10800F1E7963A9140F7E7C046A0
:100D0000FFFFFF7F70B5051E0ED001F06BFE9E2326
:100D100004001B1A962B0CDC082801DD083CA540BA
:100D20006D026D0AD8B201E000200025C0052843FD
:100D300070BD992B09DD020029001B3291404A1E2B
:100D400091410522121AD5400D43052C01DD621F89
:100D500095402900084E31406A0709D00F202840ED
:100D6000042805D004314A0102D59F2331401B1BC2
:100D700089014D0AD8B2D9E7FFFFFFFBF0B54F4616
:100D8000D64646460D0001001800C0B517002B03DB
:100D90005A0A4B0F1343CA00914602036E004100EA
:100DA000520AEC0F7D0F1543760D490DC00F824698
:100DB000AC46FF00721A844200D198E0002A00DCA1
:100DC00081E0002900D1B6E0C9498E4200D172E12C
:100DD00080212800090408438446382A00DD5EE1AA
:100DE0001F2A00DDEEE1202039006546801A874089
:100DF000D14085400D4339004F1EB9416746D74069
:100E00002943DB1B4A46551AA945894149425B1AC9
:100E1000984643461B0200D4CCE043465B025B0A83
:100E200098464346002B00D12CE1404601F0DAFD04
:100E300001000839202228004346521A8B40D04036
:100E40008D4003438E4200DD17E18E1B721C1F2A6A
:100E500000DDA7E1202118002E00891A8D4088406E
:100E6000D640D340691E8D41304398460026054345
:100E70006B0709D00F232B40042B05D02B1DAB4251
:100E8000AD416D42A8441D0043461B0200D494E0CE
:100E9000974B721C9A4200D19DE04146954BED085C
:100EA00019400B00520549075B0229431B0B520DE9
:100EB00012051343E407234308001900E0BCBA46B7
:100EC000B146A846F0BD002A43D08A1B002E00D0B0
:100ED0002AE14C461C4300D1D1E1541E012A00D125
:100EE0001FE2834DAA4200D172E2220023E1002AD0
:100EF00000DC98E0002942D07D498E4200D1DAE042
:100F000080212800090408438446382A00DD29E1AD
:100F10001F2A00DC87E1110065462039CD40202AD8
:100F200004D040206146821A91400F4339004F1E81
:100F3000B9410D431BE12900394300D1B5E0511EF1
:100F4000012A00D1ABE16A48824200D1B2E10A0035
:100F500043E76949751C0D4200D0CFE0002E00D058
:100F600093E14946194300D1D1E16146394300D0AC
:100F7000E3E149465807C9080143DB0826E0290098
:100F8000394300D191E0511E012A05D058488242D0
:100F900000D18FE10A00B8E73D004D444D4589413D
:100FA0006344984649428844434602261B0200D5C2
:100FB000EBE0013E6B0700D05CE74346E9085A07C7
:100FC00011433200DB084A48824221D01B035205FC
:100FD0001B0B520D6CE70023002169E72A003A43FE
:100FE00069D04A465807D108DA0880231B03084312
:100FF0001A4207D02900ED081D4203D12A00FF083C
:1010000048073843430FC1005B07C9081943130061
:101010000A001A4300D113E28022120313431B0378
:10102000334A1B0B44E7002A4BD08A1B002E00D109
:10103000E7E02F48814200D195E18020000403437E
:10104000382A00DD43E11F2A00DDDBE120201D00FE
:101050004E46801A8540D64035434E468640300085
:10106000D340461EB0419C440543ED19BD429B410F
:101070005B42634498460E007FE01E4A761A134096
:101080009846F5E6280001F0ADFC010018311F2953
:1010900000DCCFE62B00083883400025D2E662460C
:1010A0003A4311004F1EB941ACE649465807C908FA
:1010B0000143DB0887E749465A07C9081143DB08A3
:1010C000A6E70D49701C084200D0BBE0002E00D0FE
:1010D00014E14946194300D175E12900394300D094
:1010E0007EE149465807C9080143DB086EE7C04660
:1010F000FF070000FFFF7FFFFE0700004946CD1BF2
:101100006146581AA945894149428846010040462E
:10111000091A8846090200D5A6E04146294300D0B5
:101120007FE60023002451E7C74CA14200D1C7E06D
:10113000802424042343382A54DC1F2A00DDCCE019
:1011400020244846A41A1D004E46A040D640A54083
:101150000400D34062463543661EB441D31A9C4610
:10116000254344E062463A4315006F1EBD414D449D
:101170004D45894149428846984443461B0200D464
:1011800018E7B14B01369E4249D04246AF4B012190
:101190001A4013006A080D401543D9075B089846AA
:1011A0000D4365E618001F3EF040202A03D0402181
:1011B0008A1A93401D43691E8D41002300269846DC
:1011C0000543F7E6110065462039CD40202A04D0BA
:1011D00040206146821A91400F4339004F1EB941A9
:1011E00029430FE64A4613431D006B1E9D417D1B9C
:1011F000AF429B4162465B42D31A984654460E006A
:1012000007E64846184300D1B3E0501E012A00D13A
:101210000DE18D4DAA4200D1A5E0020010E7320099
:101220000023002144E620213800891A65468F40BA
:101230008D40D040791E8F4105433D436746D740DE
:10124000DB1994E7804A904200D1ECE03900494430
:1012500049459241634452429B18DD0749085B08A7
:10126000984606000D43A5E64A46BD1AAF4289419D
:1012700062464942D31A5B1A98465446D1E56C0738
:10128000F9082143EB0804009DE64A461A4375D14C
:101290006146394314D1802300241B03BCE64A462F
:1012A000D51BA9458941624649429B1A5B1A98465B
:1012B0000126AEE54A46D1085A071143DB08A7E6E6
:1012C0006346F9085A0754461143DB08A0E64A462C
:1012D00013431D006B1E9D41C7E614001E00203CF9
:1012E000E640202A05D04024A21A93404A461A43D9
:1012F00091464D466B1E9D41354378E74A461A4359
:1013000000D06BE66B07F9081943EB0880E66146ED
:10131000394354D06346F9085C072143DB080400D5
:1013200054E64A46BD1AAF42894162464942D31A41
:101330005B1A9846040001266BE54A46D51BA94571
:101340008941624649429A1A521A9046120232D58F
:101350004A46BD1AAF42894162464942D31A5B1AD6
:101360009846040084E56346F9085A071143DB08F0
:101370004EE6F90868070143EB0824E662463A4363
:1013800000D198E64A46D1085A071143DA0880236B
:101390001B031A4208D06046C5081D4204D15446BA
:1013A0002A00F908430719434B0FC9005B07C90816
:1013B000194313002CE64146294300D0FAE50023E7
:1013C0000A00002402E66B07F9081943EB08FDE563
:1013D0006346F9085B07194363460400DB0817E618
:1013E0003D004D4463444D458941984649428844F7
:1013F00043461B0200D4DDE54246144B01261A4049
:101400009046D7E510001E002038C640202A05D09F
:101410004020821A93404A461A4391464D466B1E1D
:101420009D41354321E602000023002140E54A4664
:10143000D519BD4289416344984649428844B3E581
:101440000021014A0B0033E5FF070000FFFF7FFF8B
:10145000F0B557464E464546DE46E0B581460500A6
:101460000C03480092461F0085B0240B400DCE0FA0
:10147000002859D0874B984200D198E06B0FE400C8
:101480001C4380231B0423439846834BED009B465B
:1014900000239946834400933C037B005046240B71
:1014A0005B0DFF0F002B67D07A4A934218D07A4920
:1014B000420F8C46E40059461443802263441204D0
:1014C000CB1A14439B46C200002033007B409A464F
:1014D0004B460F2B00D9EFE070499B00CB589F463D
:1014E0006F4B52469C462243E344002A00D095E0CD
:1014F000494602231943894600240220E5E70023D8
:101500000024002552461B052343D207134328001D
:10151000190005B0F0BCBB46B246A946A046F0BDD6
:10152000002400255B4BEDE74B462343984600D152
:1015300089E0002C00D1E0E1200001F053FA010025
:1015400002000B391D235B1A49461000D9400838A8
:1015500084400B004D4623439846854051483C0348
:10156000831A9B460023994600937B005046240B28
:101570005B0DFF0F002B97D15246224355D0002C14
:1015800000D1CAE1200001F02DFA02000B3A1D2320
:1015900001009B1A52460839DA408C4014435246E7
:1015A0008A40414B58449B46834400208DE74B467C
:1015B0002343984640D108239946063B002583469D
:1015C000009369E7B246009B022BA9D0032B00D100
:1015D00011E2012B93D0354A5A44002A00DC3CE149
:1015E0006B0700D0A7E1ED084346DB0106D5424674
:1015F0002F4B1A4090468022D2005A442D4B9A42DB
:101600008EDC4346520558075C020543240B530DFC
:1016100078E7BA46A04615000090D4E74A4603236F
:101620001A439146032052464FE749460123194386
:1016300089460024012048E70C239946093BA0462F
:101640008346009328E70423994600239B460133F1
:101650000025009320E7002380249A4600250D4BA7
:1016600024034FE7802341461B03194208D01C4244
:1016700006D11C432403BA461500064B240B41E750
:101680008024434624031C432403B246014B240B0D
:1016900038E7C046FF07000001FCFFFF10EF00081D
:1016A00001F8FFFF0DFCFFFFF3030000FF03000044
:1016B000FFFFFFFEFE070000444500D216E100D107
:1016C00011E101235B429C462E0040460025E34485
:1016D0002302140E1C431B0C994623041F0C1202F8
:1016E000494600920197FEF7BBFD02007A430B04C6
:1016F000310C804619438A420BD901235B429C4638
:101700000919E0448C4204D88A4202D9831E9846C3
:101710000919881A4946FEF7A3FD09048C463104CD
:101720006646019A090C4243030031438A4204D9B8
:101730000919013B8C4200D811E1891A4246009EEA
:1017400012041A43330C1F00100C9046029313042A
:101750003204160C32001B0C5A4303967B4346435B
:101760007843170CBC469B1963449E4203D98026DC
:101770007602B44660441E0C301816041B04360C66
:101780009E19814200D29CE000D197E0AE1B091A5D
:10179000B54280414042081A844200D111E14946D5
:1017A000FEF75EFD019A0B044243310C050019431C
:1017B0008A4207D90919013D8C4203D88A4201D9CE
:1017C000851E0919881A4946FEF74AFD09048C4608
:1017D00031046646019A090C4243030031438A42B0
:1017E00007D90919013B8C4203D88A4201D9831ECB
:1017F0000919039E891A32002D041D43029F2B04F0
:101800001B0C5A437B439C46280C4643130CB444A0
:10181000634478439E4203D980267602B4466044EE
:101820001E0C12041B04120C30189B18814206D3A4
:1018300002D001231D43CEE6002B00D1CBE6611878
:101840006E1EA14200D2A4E0814200D2C9E000D1C4
:10185000D9E03500EDE701256D420121891A3829CB
:1018600000DD4CE61F2900DC7FE01F235B429A1A53
:101870004346D340202904D04446654A5A44944004
:1018800025436A1E954107222B43150000241D4065
:101890001A4200D1A1E00F2200241A40042A00D1EC
:1018A00098E01A1D9A429B415B42E4181300220201
:1018B00000D48FE001230024002523E6B54200D3A5
:1018C00064E743465A1E009B9C4665441F009D42A8
:1018D0009B415B421B19C9188C423AD2884263D89B
:1018E00060D0904652E7AA4200D9EAE64346DE07B6
:1018F00058086B081E43ED07EAE6484601F072F807
:1019000001000200153120321C2900DC1AE64B468A
:10191000083883400025984620E601F063F803006C
:101920001A00153220301C2A00DC30E65446083BF1
:1019300000229C4035E60F232B40042B00D152E6B9
:1019400005235B42AB429B4104355B42ED08984462
:101950004AE68C42C5D1AF42C0D9904616E78A42CA
:1019600000D8EAE6831E0919E7E62A4A28005A4405
:10197000434695409340C8406A1E95414446034300
:101980002B43CC405A0792D00F221A40042A88D108
:101990008DE73500814200D04BE7009A934200D09A
:1019A00047E718E6AE429CD902235B429C46009B67
:1019B000E0449C4665449D429B415B421B19C9180B
:1019C000E4E6154A5A44002A00DC44E701230025D6
:1019D000984409E665076402240BDB081D430023D5
:1019E00090E5009E023D7200B242BF417F423C1929
:1019F00009190092CEE78024434624031C432403A4
:101A0000064B240B7EE5009A9A42EAD33500C4E7E0
:101A10003E0400001E040000FF030000FF0700005A
:101A2000F0B54F464646D646944691461A03120BE9
:101A3000184DC0B54C000F0392465A000600804670
:101A40003F0B0120640DC90F520DDB0FAC420AD0D1
:101A5000AA4203D0944201D157450DD0E0BCBA460A
:101A6000B146A846F0BD3D003543F7D1A242F5D1BD
:101A7000524665462A43F1D10120C845EED199422C
:101A800006D0002CEAD13E433000461EB041E5E7C7
:101A90000020E3E7FF070000F0B54E4645465746F5
:101AA000DE4604001800E0B516001B031B0B324D88
:101AB0000F034A0099464300A446B0463F0B520D1F
:101AC000C90F5B0DC00FAA4229D0AB4218D0002A23
:101AD0002AD13C43A34665426541002B02D14C46C6
:101AE000264327D0002D15D1814228D0022001396C
:101AF00008400138F0BCBB46B246A946A046F0BD3E
:101B00004D462E432FD1002AEED13C43654265411C
:101B1000002DE9D00028EDD101204042EAE73D0048
:101B2000254320D19342EBD0002BDDD14C462643F8
:101B3000DAD1DBE75B460020002BDBD0D6E79A4208
:101B40000ADCE7DB4F45D1D810D000204F45D1D279
:101B50000029E1D00800CDE743425841022340422A
:101B600018400138C6E702204042C3E7C445BDD84B
:101B70000020C445BED2EBE7FF070000F0B54E469B
:101B800045465746DE4604001800E0B516001B0324
:101B90001B0B314D0F034A0099464300A446B04643
:101BA0003F0B520DC90F5B0DC00FAA4211D0AB42C3
:101BB00014D0002A2FD13C43A34665426541002B37
:101BC00014D14C46264311D15B460020002B17D080
:101BD00010E03D00254312D193421CD14D462E43C7
:101BE0000DD1002A04D13C4365426541002D0DD141
:101BF000814216D0022001390840013800E002205D
:101C0000F0BCBB46B246A946A046F0BD0028F7D1BD
:101C100001204042F4E7002BEAD14C462643E7D1AD
:101C2000E8E79A4206DD4342584102234042184009
:101C30000138E5E79A42E9DB4F45DBD806D00020C2
:101C40004F45DDD20029E3D00800D9E7C445D1D8FB
:101C50000020C445D4D2F5E7FF070000F0B5574691
:101C60004E464546DE46E0B598460C034B0006005E
:101C7000924687B0240B5B0DCF0F002B6CD0DD4A52
:101C8000934200D186E0420FE40014438022120404
:101C90001443D94AC50094466344009300239946EF
:101CA0009B46434642461E03D20F5B005046904679
:101CB000360B5B0D00D178E0CE4A93421DD0CE4961
:101CC000420F8C4600996344F6008C4616438022EE
:101CD0009C44120463461643C200002000930099FE
:101CE000434601318C4649467B4001930F2900D978
:101CF0007EE0C24B890059588F465246009B3243C2
:101D000000D056E1BB4900268C4663444946009307
:101D10000223194389460220E1E743460193340038
:101D2000150083465B46022B5ED0032B00D1F3E106
:101D3000012B00D018E1002200240025019B120590
:101D40002243DB071A432800110007B0F0BCBB4652
:101D5000B246A946A046F0BD2500054300D141E1A9
:101D6000002C00D1ADE1200000F03CFE010002009B
:101D70000B391D2310005B1A3100350008388440F0
:101D8000D94085400C439E48831A0093002399460E
:101D90009B4686E70500254300D01CE108220093FE
:101DA0000223002491469B467BE75246324300D1F2
:101DB0000AE1002E00D176E1300000F013FE0200AF
:101DC0000B3A1D2301009B1A52460839DA408E4017
:101DD000164352468A40009B8949181A03008C46D4
:101DE0006344002000937AE700240025814AA5E798
:101DF0002F0C2D042D0C2B00110C1204120C53432C
:101E00009846130028007B4399464843484483463C
:101E100040460B00000C824658467B4350440293D8
:101E2000814506D99A4680235B029946CA445346A7
:101E30000293030C9B4643461B0400041B0C98466C
:101E4000030043440493330C99462B003604360CAC
:101E50007343984633007B439A464B465D435F434A
:101E600043465544180C4019824503D980235B0230
:101E70009A465744050CEB19059343461D042D0C57
:101E800000044019250C2404240C270057436A43FE
:101E900090462A003B0C9A464A43614341445144D0
:101EA0008344884503D980235B02984642443F041B
:101EB0000B0C3F0C0904C919270098464B46774381
:101EC0005C436E435D433B0C9946A4194C44424429
:101ED0000395A64204D980235B02984645440395A6
:101EE000029B3F045B441E008342804123049846CA
:101EF000059B3F0C4744984676188E4289414744DB
:101F000040423D18A846934649428A46C3449F42F0
:101F1000BF4180458041039BDA4498465346404286
:101F20007F420743240C934592418A4589413F19DA
:101F3000DC0D049B75021D43681E854153465242C9
:101F400049420A43BF184744F60D7F0235435A02FF
:101F50003C431543FB0100D4C1E001216A080D4058
:101F60001543E2071543640826496144002956DDFC
:101F70006B0709D00F222A40042A05D02A1DAA4245
:101F8000AD416D4264191500E30104D580211E4A5C
:101F9000C900144061441D4A914200DD24E76207F4
:101FA000ED08640249051543240B4A0DC6E6019766
:101FB000B8E6104A0320944663444A46009303233C
:101FC0001A43914652468AE64946012319438946F7
:101FD0000026012083E60C2200930323050091468E
:101FE0009B465EE6042399460023009301330024B8
:101FF0009B4656E6FF07000001FCFFFF50EF00087C
:102000000DFCFFFFFF030000FFFFFFFEFE070000C7
:10201000002380240025444A019324038EE60120F6
:10202000401A382800DD86E61F285BDD1F222300CA
:102030005242511ACB401900202803D03B4A624437
:10204000944025436A1E95412A000A4307210D004A
:102050000024154011425BD00F21002411400429B7
:1020600053D0111D914292415242A4180A002302FA
:102070004BD501220024002560E680231B031C426F
:1020800009D01E4207D133431C0343461500240BDD
:10209000254A019352E68022120314432403224A64
:1020A000240B01974AE600F09DFC03001A0015324C
:1020B00020301C2A00DC84E65646083B00229E4065
:1020C00089E600F08FFC01000200153120321C2946
:1020D00000DC4EE6340008380025844053E6009BBF
:1020E0009C4641E71249220061442E008D408A40FF
:1020F000C640691E8D4132432A43C4405307B6D0BF
:102100000F2111400429ACD1B1E765076402240B0B
:10211000D2081543002211E680221203144324033F
:10212000014A240B0AE6C046FF0700003E040000F7
:102130001E040000F8B557464E464546DE460400EC
:10214000E0B51F0010000B03620F4E00CD0F5B0ABD
:1021500039031343490AE200440F2143C24C91461C
:102160009246C0007A008046760D520DFF0FA242C3
:1021700000D1B4E001246740BB46BD4200D188E0F5
:10218000B41AA446002C00DCB2E0002A00D1C5E05D
:10219000B54A964200D18BE2802212041143624676
:1021A000382A00DDA1E11F2A00DD16E220270C00FD
:1021B000BF1ABC400200A0466446B840E240444614
:1021C00014430200501E82416046C14022435B1A04
:1021D00049468C1AA145924152429B1A9846434661
:1021E0001B0200D417E143465B025B0A9846434654
:1021F000002B00D16CE1404600F0F4FB0200083AED
:10220000202120004346891A9340C840944003434C
:10221000964200DD57E1961B711C1F2900DDCBE1C2
:10222000202218002600521A94409040CE40CB4005
:10223000621E94413043984600260443630709D048
:102240000F232340042B05D0231DA342A441644245
:10225000A0441C0043461B0200D4DFE0824B013641
:102260009E4200D1FBE04246804BE4081A40130036
:10227000710552075B0222431B0B490D0905ED074F
:10228000194329431000F0BCBB46B246A946A046FC
:10229000F8BDB41AA446002C58DD002A00D19EE0F7
:1022A000714A964200D13BE18022120411436246FA
:1022B000382A00DDC1E01F2A00DCBBE10C00203A17
:1022C000D44022006446202C04D040273F1BB94054
:1022D000084380464446611E8C411443B1E00C0023
:1022E00004432AD0BB46BD422DD0614CA446B44421
:1022F0006446002C5CD0941BA446002E00D015E14F
:102300004D461D4300D1C3E1651E012C00D10CE2F6
:10231000554EB44200D1F8E1AC460EE10A0002434A
:1023200000D136E12200013A012C00D1C6E14E4C29
:10233000A44500D1F4E0944631E701246740BB4650
:10234000BD4200D01CE74A4CA446B4446446002C6D
:1023500000D1CFE0941BA446002E00D15CE1424E98
:10236000B24200D1ECE18026360433436446382C77
:1023700000DDB3E11F2C00DD38E22026361B1C00F7
:10238000B4404F46A0466446E74044463C434F466F
:10239000B7403E00771EBE4134436646F340C9183D
:1023A000241884429B415B429846160088444EE0C4
:1023B000304A741C144200D0D6E04A461A43002E1C
:1023C00000D05BE1002A00D1A5E10A00024300D061
:1023D000BBE14A465907D2080A43DB0827E00A0056
:1023E000024300D174E12200013A012C05D01E4CB9
:1023F000A44500D194E0944659E7484448459241A9
:102400005B189846040052429044434602261B0241
:1024100000D5C4E0013E630700D011E74346B4464F
:102420005907E2080A43DB080F498C4540D0614652
:102430001B0349051B0B490D20E701430C00611EDE
:102440008C414C444C4592415242904698444346FC
:102450001B02E0D5044B01369E4200D09FE03100C4
:10246000002300220AE7C046FF070000FFFF7FFFAE
:1024700001F8FFFFFE070000002A00D160E10A001A
:1024800002434DD04A465C07D20822438024DB0831
:102490002403234207D0CE08264204D15D463300F0
:1024A000C20849070A43510FD200D20849070A431C
:1024B0001100194300D1C8E1802109030B431B031C
:1024C000D5491B0BDAE6D549B61A0B409846B5E656
:1024D000200000F087FA020018321F2A00DC8FE685
:1024E000230008388340002492E608430200501E6F
:1024F00082416DE6CA4C721C224200D0ADE04A46D1
:102500001A43002EB8D1002A00D158E10A00024334
:1025100000D059E14A465907D2080A43DB0886E74A
:102520004A465907D2080A43DB08C1E7BA4DAA4216
:1025300000D11EE180252D042B436446382C5DDC40
:102540001F2C00DDD0E0202567462D1B4E461C00C9
:10255000FE40AC4034434E46AE403500FB406E1E5C
:10256000B541C91A2C434EE04A46141AA14592417E
:10257000524290465F1A3A004746D21B90461202DA
:1025800000D58BE04246224300D030E600230025F0
:102590004DE74A465907D2080A43DB0844E742465A
:1025A0009E4B61081A401300012214400C43DA07C5
:1025B0005B089846144341E61A001F3EF24016009D
:1025C000202903D04022511A8B401C43621E9441A3
:1025D00000233443984600261DE70C00203AD440DF
:1025E00022006446202C04D040273F1BB9400843FA
:1025F00080464446611E8C412243E9E54C46234314
:102600001C00631E9C41041BA0429B415B42CB1AF1
:1026100098465D461600E2E54E461E4300D1AEE008
:10262000661E012C00D1FDE07B4FBC4200D107E1CA
:10263000B4469BE664462022121B0C00944007001F
:102640009040A0466446421E90416246E7404446A0
:10265000D1403C4304435B18F3E66F4CA24200D1E7
:10266000D5E048445B184845894149425B18DC077E
:1026700040085B08984616000443CCE6002A00D0C8
:1026800082E00A00024340D1802300251B0313E7A8
:102690004B07C2081A435D46CB08C5E64A46841A72
:1026A000A0429241CB1A52429B1A98465D469EE543
:1026B0004A465907D2080A43DB08F9E64A46141A83
:1026C000A14592415B1A52429B1A9846012686E523
:1026D0004A465907D2080A43DB08A5E64C4623437D
:1026E0001C00631E9C415BE665461E00203DEE40DB
:1026F000202C05D040252D1BAB404C461C43A24648
:102700005446631E9C4134437DE74B07C2081A437D
:102710005D46CB08CCE60A00024300D136E74B0702
:10272000C2081A435D46CB0881E64A46841AA04295
:102730009241CB1A52429B1A98465D4601264EE5BD
:102740004B07C2081A43CB08B2E64A46141AA14501
:1027500092415F1A5242BA1A904612026BD54A460B
:10276000841AA0429241CB1A52429B1A98465D4667
:1027700064E54B07C2081A435D46CB0898E64B0751
:10278000C2081A43CB084FE60A00024390D04A46DB
:102790005C07D20814438022DB081203134208D0DE
:1027A000CE08164205D1C0084907084304005D461B
:1027B0003300610FE2004907D2080A4378E64B076D
:1027C000C2081A43CB0832E648445B184845924198
:1027D000984652429044434604001B0200D41AE635
:1027E00042460E4B01261A40904614E666461F00EC
:1027F000203EF740202C05D04026361BB3404C46E7
:102800001C43A2465446631E9C413C43C8E511004C
:102810000023002232E5C046FF070000FFFF7FFFD4
:10282000FE0700004A461418844292415B189846FD
:1028300052429044E9E54246224300D1A6E6EAE549
:102840004B07C2081A43CB0832E6002201491300A5
:1028500014E5C046FF0700000A0030B5134C5300D2
:1028600009030500090B00205B0DD20FA34204DD14
:102870000F48834202DD0F4BD01830BD802040034B
:1028800001430D48C01A1F2808DD0C48C31AD9405F
:102890000B005842002AF0D11800EEE7084CC54062
:1028A000A446634499400B002B43F2E7FE0300006B
:1028B0001D040000FFFFFF7F33040000130400002D
:1028C000EDFBFFFF70B5002816D0C317C5185D409B
:1028D000C40F280000F086F8114A121A0A2816DCE4
:1028E00003002E0015339E400B23181AC5405305D4
:1028F0002D032D0B5B0D03E0002400230025002693
:102900001B052B43E40723433000190070BD0B382F
:10291000854053052D0300262D0B5B0DF0E7C046C7
:102920001E04000010B5041E10D000F05BF80F4B21
:102930001B1A0A2811DC0B222100121AD140153073
:102940000A035B058440120B5B0D01E000230022AB
:102950001B0513432000190010BD22000B388240D4
:102960005B0512030024120B5B0DF1E71E0400004F
:102970008446081C6146FFE71FB500F0D1F8002827
:1029800001D40021C8421FBD10B500F055F84042E7
:10299000013010BD10B500F0C3F8002801DB0020A5
:1029A00010BD012010BDC04610B500F0B9F80028D8
:1029B00001DD002010BD012010BDC04610B500F0A3
:1029C00063F8002801DC002010BD012010BDC046C6
:1029D00010B500F059F8002801DA002010BD0120E0
:1029E00010BDC0461C2101231B04984201D3000CDA
:1029F00010391B0A984201D3000A08391B09984272
:102A000001D30009043902A2105C40187047C04687
:102A100004030202010101010000000000000000A7
:102A200010B5002903D1FFF7DDFF203002E0081CBC
:102A3000FFF7D8FF10BDC04670B542004E024C00F3
:102A400045026D0A120EC30F760A240EC90FFF2A23
:102A50000FD0FF2C11D00120A24200D070BDB54292
:102A6000FCD18B420DD0002AF8D12800451EA84188
:102A7000F4E70120002DF1D1EBE70120002EEDD18C
:102A8000E9E70020EAE7C046F0B5420046024D0201
:102A90004C00C30F760A120E6D0A240EC80FFF2ACF
:102AA0001FD0FF2C10D0002A1FD171427141002C81
:102AB00001D1002D1ED000290ED183421ED002214B
:102AC000581E08400138F0BD002D26D1002AF4D14F
:102AD000714271410029F0D00028F4D10120404218
:102AE000F1E7002E19D1FF2CEED0002CE5D1002DFE
:102AF000E3D1E4E70020002EE5D0E0E7A24205DCC8
:102B0000EADBAE4202D8E7D30020DCE74142414194
:102B10004842022108400138D5E702204042D2E76E
:102B2000F0B5420046024D024C00C30F760A120E69
:102B30006D0A240EC80FFF2A0DD0FF2C0FD0002ADB
:102B400023D171427141002C0FD1002D0DD10020F5
:102B5000002E14D00DE0002E10D1FF2C15D1002D29
:102B60000CD1002A03D171427141002908D183425E
:102B700010D00221581E0840013800E00220F0BDAC
:102B80000028FCD101204042F9E7002CEFD1002DB4
:102B9000EDD1EEE7A24205DCF2DBAE4202D8EFD384
:102BA0000020ECE7414241414842022108400138FF
:102BB000E5E7C04610B5002488B009F0C4FD09F06F
:102BC00029FE09F0C2FD21000C2205A80094019401
:102BD0000294039404940BF005FD684604AA02A92C
:102BE00000F0ECF8200008B010BD000010B5064859
:102BF00009F02EFC054809F02BFC054809F028FCDB
:102C0000044809F025FCFEE790EF000898EF000863
:102C1000A0EF0008B3EF0008F0B54848C5B009F0D0
:102C200017FC474809F014FC464E002530000D27DC
:102C300009F00EFC0B23FB22290003AC6F4405A80E
:102C400023703D7004950BF0CDFC6B469D730F23F4
:102C50006B441D7000930E2339006B44200004AABE
:102C600000F0BEF90F236B441B78002B01D145B057
:102C7000F0BD354809F0ECFB344809F0E9FB217858
:102C8000334809F0E5FB300009F0E2FB2078092821
:102C900048D8FDF741FA3535051018353535473533
:102CA0002C4809F0D5FB2C4809F0D2FB2B4809F041
:102CB000CFFB300022E0274809F0CAFB264809F084
:102CC000C7FB2748F3E76B469A7B264B043AD2B200
:102CD00005A925481A700BF069FC04ABD978234884
:102CE00009F0B6FB1F4B22491A78224809F0B0FBC5
:102CF00000251C4B1B78AB4205D81F4809F0A8FBE8
:102D00000F236B44A6E70F231D4204D1002D02D0F0
:102D1000194809F09DFB144B1848595D09F098FBC0
:102D20000135E6E7164809F093FB164809F090FBD9
:102D30002178154809F08CFBBBE7C046B8EF0008C6
:102D4000C0EF0008B3EF0008D7EF0008DFEF00087E
:102D5000E7EF0008F3EF0008FBEF000803F00008BE
:102D600013F000081F030020200200201DF00008BF
:102D700037F0000840F0000839FC000853F0000864
:102D800090EF000898EF000859F0000810B508F01F
:102D900039FF084C2368C01AFA235B00984207DD0C
:102DA00008F030FF0122044B20601A7009F018FB74
:102DB00010BDC0461C020020200300207FB5060085
:102DC0000D00140009F0BFFC204800F0E9F80822CB
:102DD000002101A80BF006FC1D4B022200212D2032
:102DE000039301AB08F022FD09F0AFFC300000F0C6
:102DF000A3F9280000F07CF9200000F0C1F900F0F0
:102E0000E3F9144809F024FB134809F021FB1348A7
:102E100009F01EFB124809F01BFB00F0DDF8114B16
:102E20001A78002A0FD000241C706B4613220E491A
:102E3000D81C0BF0C4FB6A46132321000332662022
:102E400000F020FAE9E709F0FDFCE6E7192C00089C
:102E50008D2D0008F3EF0008FBEF00086BF0000871
:102E6000B3EF00082003002086F00008F0B58BB017
:102E70001F0010AB1B78050001910292039300F034
:102E80007FFE3B4E002811D03A4809F0E1FA3A485B
:102E900009F0DEFA00F07EFE38490200384809F0F9
:102EA000D7FA300009F0D4FA06205BE000F078FE93
:102EB00001280AD12F4809F0CBFA2F4809F0C8FAA7
:102EC0002E49304809F0C4FAEBE76B1EDBB2DE2B6B
:102ED0000DD800F0EBFC85420ED1264809F0B8FA77
:102EE000254809F0B5FA2A0024492748D7E700F019
:102EF00055FA0028EDD1F0E7019B012B08D91D48B8
:102F000009F0A6FA1C4809F0A3FA1C491F48D9E7A2
:102F1000039B05AC012B27D10020207200F032FA70
:102F20003A0002991A480BF041FB00232370019BE1
:102F300065726374164B2774E36008F05BFE606093
:102F4000144809F085FA144809F082FA3900134848
:102F500009F07EFA300009F07BFA200001F0FCFA5B
:102F60000028A1D10BB0F0BD01232372D8E7C046E1
:102F7000B3EF000890EF000898EF000809F200088E
:102F800093F00008B4F00008C9F00008E3F000086E
:102F900024030020F3EF0008FBEF000814F1000801
:102FA00070B50400094D280005F0C5FB280005F0A8
:102FB00026FC074E2900300005F0AEFF054808F05A
:102FC000BFFB3100200001F083FA70BD000000203B
:102FD000240400200C00002010B501F071FE10BD8B
:102FE000F0B5C7B01D0014000191070000F024FCEB
:102FF00000232B70060000F07BFB4C9B18700B2805
:1030000013D9374809F024FA364809F021FA36482E
:1030100009F01EFA354809F01BFA00224C9B0620E5
:103020001A700B233B7047B0F0BD002854D030001D
:103030003E7000F027FB019B01381870072E08D85E
:103040003000FDF769F80E04043A18333E420023BD
:103050002B703000002100F021FB00F03FFB00202E
:10306000E1E702232B7000F07DF9207000F07AF97F
:10307000000A6070EDE703AF380000F0EBFD02AB33
:103080000433FF335A78201D131D2B7002AB03331A
:10309000FF3399882170DB8863700023A3703B782D
:1030A000E37002AB591D0BF081FAD2E70123052032
:1030B0002B7000F007FB2070CBE7012303202B705F
:1030C000F7E7012306202B70F3E701232B7000F0B4
:1030D00057FD431E9841EEE70B233B70A3E7C04624
:1030E00090EF000898EF000847F10008B3EF0008E0
:1030F00070B5050000F09EFC041E0FD0094809F0D1
:10310000A7F9094809F0A4F90849094809F0A0F904
:10311000084809F09DF90524200070BD280000F042
:1031200019F9F9E790EF000898EF000817F2000886
:1031300084F10008B3EF000870B5050000F07AFCD8
:10314000041E0FD0094809F083F9094809F080F9F5
:103150000849094809F07CF9084809F079F905247B
:10316000200070BD280000F0E9F8F9E790EF0008B2
:1031700098EF000829F2000884F10008B3EF000876
:1031800070B5050000F056FC041E0FD0094809F088
:103190005FF9094809F05CF90849094809F058F94C
:1031A000084809F055F90324200070BD280000F0FC
:1031B000C9F8F9E790EF000898EF00083AF2000824
:1031C00084F10008B3EF000870B5254D280009F020
:1031D0003FF9244809F03CF900F0A4F801280ED189
:1031E000214809F035F9214809F032F920492148F0
:1031F00009F02EF9280009F02BF9062411E000F05F
:1032000019FC041E0FD0184809F022F9174809F0DC
:103210001FF91749184809F01BF9280009F018F997
:103220000524200070BD00F0ABFCFF2808D10E483B
:1032300009F00EF90D4809F00BF90D490F48D7E7D1
:1032400000F0AEFC012808D1074809F001F9074851
:1032500009F0FEF806490A48CAE700F0BDFBE0E7BE
:10326000B3EF0008ACF1000890EF000898EF0008F9
:103270004BF20008C4F1000884F10008F6F10008E0
:10328000B4F0000813B500240094FFF7EFFD16BD5D
:10329000014B186880B27047500900200048704701
:1032A0002404002010B5024A024903F02DFE10BD8F
:1032B000340000201800002010B503F087FE10BD78
:1032C00010B503F089FE10BD13B5049C009403F003
:1032D00063FD16BD10B503F08FFC10BD10B503F0F3
:1032E0000BFC10BD10B503F073FC10BD10B503F05E
:1032F00077FC10BD10B503F0A1FC10BD10B503F0B4
:10330000ADFC10BD10B503F065FA10BD10B503F0AB
:10331000E1FC10BD10B503F007FD10BD10B503F0C2
:103320000BFD10BD10B503F0EBFC10BD10B503F0A4
:10333000D9FC10BD10B503F099FC10BD10B503F019
:103340009DFC10BD10B503F0A3FC10BD10B503F03B
:10335000A9FC10BD10B503F0ADFC10BD10B503F015
:10336000B3FC10BD10B503F0D1FC10BD10B503F0D7
:10337000D3FC10BD10B503F0F5FC10BD10B503F083
:10338000F9FC10BD10B503F091FD10BD10B503F0B0
:10339000E3FC10BD10B503F091FD10BD014B187892
:1033A0007047C04694090020F8B584780500027A79
:1033B000824E092C0FD9824809F04AF8814809F059
:1033C00047F82100804809F043F8300009F040F840
:1033D00000242000F8BD7D4B6400E15C914209D9D6
:1033E000774809F035F8774809F032F8784809F05D
:1033F0002FF8EAE71C196378934207D2704809F066
:1034000027F8704809F024F87248F0E7724F380046
:1034100009F01EF8714809F01BF8AA78704B91006A
:10342000C958704809F014F8300009F011F8AC7868
:10343000092CCDD82000FCF76FFE05183E818D9A2F
:10344000ACBB18186B689D781F785B782D021D4304
:10345000FFF788FF854224D17B1E022B07D800F09E
:103460001FFEFFF753FF09F073F90124B1E7544839
:1034700008F0EEFF534808F0EBFF39005A4808F017
:10348000E7FF300008F0E4FF4D4808F0E1FF4D4849
:1034900008F0DEFF554808F0DBFF300008F0D8FFE9
:1034A00097E7474808F0D4FF464808F0D1FF504856
:1034B00008F0CEFFE5E7380008F0CAFF474808F0FB
:1034C000C7FF4C4808F0C4FF300008F0C1FF00F00F
:1034D000E9FE03280CD03A4808F0BAFF394808F052
:1034E000B7FF454808F0B4FF300008F0B1FFBCE773
:1034F00000F0D0FE0F226B681B78134098420DD16C
:10350000002000F04DFA0121052000F0F7F800201E
:1035100000F0CEFE052000F0F9FFA6E7284808F0ED
:1035200097FF284808F094FF6B681C7800F0B2FE03
:1035300021000200314808F08BFFD5E70122297AEB
:10354000686800F051FE0400012800D040E700F058
:10355000E1F93EE72A7A6B68013A1878D2B2591C31
:1035600000F0FEFD013844424441E4B231E76A68AC
:10357000537814781B021C43FFF7F8FE844200D0F6
:1035800026E7002000F0FEF9FFF7B0FE00F024FA75
:103590006BE76B68187800F00FFE00F0F1FA012875
:1035A00001D100F0CFF90021072000F0A7F85CE777
:1035B0000022297A686800F017FED3E7B3EF00080D
:1035C00090EF000898EF000856F20008F0F30008AA
:1035D0006DF2000892F20008D7EF0008DFEF000854
:1035E00004F40008B6F20008C6F2000805F300086B
:1035F000E6F2000814F300082BF3000842F3000879
:1036000030B503000A0085B003290ED8124808F02F
:103610001FFF124808F01CFF114808F019FF11485D
:1036200008F016FF002005B030BD59789D7800786D
:1036300001AC0333033A636020706170A57022729D
:1036400000F020FC2378002B02D0607800F016FAFE
:103650002000FFF7A9FEE6E790EF000898EF0008CA
:1036600075F30008B3EF000800231A00034804496B
:103670001A545A5401330B2BFAD17047CC0A00204C
:10368000D80A002010B504000A2801D909F06EF804
:10369000014B185D10BDC046CC0A00200A2801D895
:1036A000014B19547047C046CC0A00200A2805D89F
:1036B000034A135CFF2B01D0013313547047C046FB
:1036C000CC0A002010B504000A2801D909F04EF8F0
:1036D000014B185D10BDC046D80A0020034A13787C
:1036E000002B01D0013BDBB213707047A30900200F
:1036F000014B18787047C046A3090020F8B53C4F2D
:1037000004003B780D000B2B0CD93A4808F0A0FEC2
:10371000394808F09DFE394808F09AFE384808F00C
:1037200097FEF8BDFFF7AEFF002802D13B780133CA
:103730003B702000FFF7BAFF0A2C35D8314B601ED2
:103740001D55072830D82E4D2F4B304EFCF7E4FC8A
:103750000E041E1630404838180008F079FE30007C
:1037600008F076FE2A4808F073FE1AE0180008F008
:103770006FFE300008F06CFE2648F4E7180008F0F1
:1037800067FE300008F064FE2348ECE7180008F0FC
:103790005FFE300008F05CFE204B2148D97808F02D
:1037A00057FE280008F054FE3B781E4AD454B8E770
:1037B000180008F04DFE300008F04AFE1A48D2E723
:1037C000180008F045FE300008F042FE1748CAE72E
:1037D000180008F03DFE300008F03AFE1448C2E739
:1037E000180008F035FE300008F032FE1148BAE744
:1037F000A309002090EF000898EF00082CF40008BF
:10380000B3EF0008D80A0020F3EF0008FBEF000830
:103810005AF4000876F4000891F40008CC0A00205D
:10382000AFF4000898090020C9F40008E7F4000884
:1038300007F5000824F50008024B034A1B78D05C0A
:103840007047C046A30900209809002010B508F071
:10385000D1F9024B1B68C01A10BDC046E40A002013
:10386000044B1A78002A03D101321A70024B1860F7
:103870007047C046F40A0020E40A00203F22094BAA
:10388000187883091040022B06D0032B07D0012B98
:1038900001D1054B58437047E1231B01FAE73C2354
:1038A000F8E7C0464000002080510100014B187825
:1038B0007047C0464100002010B5FFF71FFD0328E8
:1038C0000ED9084808F0C4FD074808F0C1FD0748B4
:1038D00008F0BEFD064808F0BBFD08F047FF0020D9
:1038E00010BDC04690EF000898EF00083EF50008B4
:1038F000B3EF000810B5FFF7E3FC43425841C0B2F4
:1039000010BD000010B5082201490AF04FFE10BD9D
:10391000B0090020042370B5022686B001AC2370E4
:10392000013B2372667408F065F90521050030003B
:1039300008F084F82D182000656000F00DFE06B038
:1039400070BD00007FB507236A461371053B1373F2
:1039500008F050F9034BC018029001A800F0FCFDDC
:1039600007B000BD8051010010B5054B0424197843
:103970000A00A243002801D022000A431A7010BD99
:10398000E80A002010B5054B082419780A00A24364
:10399000002801D022000A431A7010BDE80A002056
:1039A00010B5054B202419780A00A243002801D045
:1039B00022000A431A7010BDE80A002010B5054B1A
:1039C000402419780A00A243002801D022000A43AB
:1039D0001A7010BDE80A002030B587B06A4602238D
:1039E000012513711573FFF7C5FC052104000020A4
:1039F00008F024F821180648029108F029FD280053
:103A0000FFF7DCFF01A800F0A7FD07B030BDC046FE
:103A100065F50008024B18788006C00F7047C04655
:103A2000E80A0020024B18784006C00F7047C046D5
:103A3000E80A002010B5FFF7F5FF03000120002B76
:103A400004D1FFF74FFC002800D0022010BD032353
:103A500030B587B001AC23702372013B050063745D
:103A600008F0C8F840196060FFF7E4FF022802D1AF
:103A7000200000F071FD07B030BD000030B505003A
:103A800087B0104808F0E4FC0F4808F0E1FC0F484C
:103A900008F0DEFC0E4808F0DBFC082301AC2370C4
:103AA000053B2372FE33FF33238208F0A3F840194D
:103AB0006060FFF7BFFF022802D1200000F04CFD3C
:103AC00007B030BDD7EF0008DFEF000888F5000829
:103AD000B3EF000810B5FFF7ADFF022802D00020B9
:103AE000FFF750FF014B187810BDC046E80A0020D0
:103AF00010B5FFF7D3FB9723FA21064ADB00C35822
:103B0000805889001818FCF725FB034B1B68C01868
:103B100010BDC046BC040000B809002010B5FFF776
:103B2000E7FFE1210901FCF715FB10BD10B51728CF
:103B30000DD90D4808F08CFC0C4808F089FC0C48A5
:103B400008F086FC0B4808F083FC012010BD0A4BEE
:103B50001B5C00208B42F9D0034808F079FC034835
:103B600008F076FC0548EBE790EF000898EF0008B6
:103B7000AFF50008B3EF000874F80008C3F50008BB
:103B8000034B1878FF2802D0431E9841C0B27047FB
:103B9000EA0A0020014B18787047C046EA0A002064
:103BA000014B18787047C046AC090020F8B5204C8E
:103BB000204E214A31002000FFF78CFB08F01AF854
:103BC0002300FC33D8602500FFF7A4FBFE358010EE
:103BD000E880FFF7A3FB23004030A880FF335A782A
:103BE0001649174808F034FC00250F272300FF333F
:103BF0005B78AB420FD8134808F02AFC21781248B2
:103C0000FE3408F025FC0423E25E0623E15E0F4843
:103C100008F01EFCF8BD3D4204D1002D02D0094839
:103C200008F016FC715D0A4808F012FC0135DDE76A
:103C3000C0090020C1090020C00A0020DCF50008EE
:103C400040F0000839FC0008ECF5000801F6000817
:103C500053F000080F4B10B51A00FC32D168020077
:103C6000FC32D1601900FE3106228C5E0200FE3269
:103C7000D4800424095F91801A78FF330270020017
:103C80005978FF3251705A78034901300AF08EFC9E
:103C900010BDC046C0090020C1090020F0B5C9B060
:103CA000019002910392012B2ED1694B694D1F683F
:103CB00000230122684910009840074228D0585C30
:103CC000039CA04224D90024644F380008F0C0FBB4
:103CD000634E300008F0BCFB624808F0B9FB624D4F
:103CE000280008F0B5FB029B38001C7008F0B0FB00
:103CF000300008F0ADFB5D4808F0AAFB280008F092
:103D0000A7FB200049B0F0BD594B5A4D1F68CFE7C3
:103D10000133182BCFD12B78172B01D900232B700F
:103D2000019C2878172805D90020019BE41A029BE2
:103D30001C70E7E7012383401F421ED0661C2070E1
:103D4000162875D8FCF7E8F90C1D222528313864AF
:103D500046494D510F7474545A0F5E64746A700072
:103D6000FFF7B8FE60703C4A2B78D35C039AF618D4
:103D7000019BF31A934269DC34002B7801332B70DA
:103D8000CFE7FFF7CBFE6070000A0CE008F058FBAD
:103D9000E8E708F031FBE5E7FFF7C0FA4030607074
:103DA000FFF7B8FA8010A070DDE7FFF74FFDE121C3
:103DB0000901FCF7CFF9E6E786220021520005A8A9
:103DC0000AF010FC05A8FFF745FF07F013FF479B1B
:103DD000C01AECE7FFF770FDC4E73000FFF7B6FA52
:103DE000C1E7254B1B786370BDE7FFF765FAB9E7BC
:103DF000FFF7B8FA6070FFF7B5FAC5E73000FFF7D4
:103E000099FAB0E7FFF7B2FA6070FFF7AFFABBE7D5
:103E10000822002130000AF0E5FBA4E7174B1A78CE
:103E200062709B78A3709EE73000FFF76BFD9AE706
:103E30000A4808F00DFB0A4808F00AFB29781048E8
:103E400008F006FB084808F003FB8CE701206CE74C
:103E5000A4090020EC0A002074F8000890EF000884
:103E600098EF000829F60008B3EF00086BF6000889
:103E70003C000020EB0A002040000020420000200F
:103E800085F60008014B187059707047A80900208A
:103E9000024B1A7802705B7843707047A8090020C3
:103EA000F0B52B4B87B002AD0B202B807B23002479
:103EB0002849042268440B600AF078FB0422694612
:103EC00004A8EC7100940AF071FB234F1022380013
:103ED000224908F0BDFA295D2148013408F0B8FAFA
:103EE000102CF8D11F4E300008F0B2FA0C21280037
:103EF00000F0C4FA0422019001A905A80AF056FBBB
:103F000022003800184908F0A3FA0024295D14485B
:103F1000013408F09DFA102CF8D1300008F098FA1E
:103F2000802029002200C00007F05AFD01220F4B1B
:103F30000F481A7008F08CFA0E4808F089FA0E48FB
:103F400008F086FA0D4808F083FA07B0F0BDC046C5
:103F5000C781FFFF3C00002040F00008B7F60008D2
:103F600053F0000839FC0008CAF60008AB0900202D
:103F7000F3EF0008FBEF0008DDF60008B3EF0008E0
:103F8000F0B500258BB00C22290007A806950AF091
:103F900029FB802006AC10222100C00007F014FD90
:103FA0000C21200000F06AFA0422059005A909A856
:103FB0000AF0EEFAA8422ED11B212378274A284E78
:103FC00013706378274D3370A378274F042228009D
:103FD00069443B700AF0EAFAE279244B244C1A70E7
:103FE0002378002B06D10422224808A90AF0DEFA21
:103FF000012323701F48194900683B7832780978FB
:1040000002901A4800780190286800901A4808F039
:104010001FFA0BB0F0BD194808F01AFA184808F05A
:1040200017FA184808F014FA174808F011FA102285
:104030001649174808F00CFA615D1648013508F07A
:1040400007FA102DF8D1144808F002FA0599134820
:1040500008F0FEF9FFF724FFDBE7C046410000202F
:10406000400000203C000020BC090020EA0A00209B
:10407000AA090020B8090020FFF6000890EF000808
:1040800098EF000876F70008B3EF0008A9F70008DA
:1040900040F0000853F0000839FC0008B5F70008AC
:1040A000F0B50C2700218BB03A0007A806910AF062
:1040B00099FA1B201E4B06AC1B781E4D23701E4B1D
:1040C00029001B78042263701C4B68441B78A37082
:1040D0000AF06CFA1A4E3378E371FFF709FD0422F7
:1040E000049004A908A80AF061FA3900200000F041
:1040F000C5F905A90590042209A80AF057FA049801
:104100000E4B0D4A0A491B781278097802903078D4
:104110000190286800900B4808F09AF9802010223E
:104120002100C00007F05CFCFFF72AFF0BB0F0BDD8
:10413000410000203C00002040000020BC0900207D
:10414000EA0A0020C4F7000810B5044B1A7882422E
:1041500002D01870FFF7A4FF012010BD400000201E
:1041600070B50C0011000500FFF7E0FC002821D11C
:104170002B00083B032B0CD81800FBF7CDFF020BDC
:104180000F172078FFF7B6F806202900FFF7B6FAD8
:10419000012070BD2000FFF7DDF8F5E72078FFF77C
:1041A000D3FFFFF76BFBFFF752FCEDE72078FFF73B
:1041B000A1FBE9E70020ECE7010010B50400084886
:1041C00008F046F9074B1A78A24208D001201C706B
:1041D000002C00D12000FFF7C7FBFFF761FF10BDE7
:1041E00042F80008EA0A0020F8B51400030041185C
:1041F0008B420BD100220121834226D1012C2AD1EE
:104200001B4B1A6000221B4B1A7018E01A781D0015
:10421000172A16D8184FD740BC4601276646B74321
:104220000FD1164808F014F9154808F011F929784B
:10423000144808F00DF9144808F00AF90024200089
:10424000F8BD0133172AD3D9EBE70E00057801300A
:10425000AE403243D0E70D4B012419689142EED0B5
:104260001A6000220A4B1A70FFF71AFFE7E7C046F0
:10427000A4090020EC0A00200070920090EF0008D2
:1042800098EF000854F80008B3EF00083C00002045
:10429000EB0A0020024B18780F2318407047C046E5
:1042A000BC090020014B18787047C046E90A00207D
:1042B000014B18707047C046E90A0020044B10B546
:1042C0001A68824202D01860FFF7EAFE10BDC046AD
:1042D0003C000020014B18687047C0463C0000209D
:1042E000014B18687047C046F00A0020014B186067
:1042F0007047C046F00A0020014B18787047C0464E
:10430000AB0900200A680368534003604B684268A9
:104310005340436070470000F0B514000A008FB0AE
:10432000033A029005910192072A02DC00200FB0A7
:10433000F0BD504D21002A19907DF022083149002E
:1043400092016918800210408A88029E013A920503
:10435000920D0243A007000C02430E207270120A55
:104360003070B270180C444A58405043030C43401C
:104370005343180C43402F69039307920991002679
:10438000099B08229B8800210AA8039D06930AF036
:1043900029F9069B1F335B095D43039B0895013395
:1043A00003933B0035000C3B0493069BB3422BD890
:1043B000029B059A0AA99818019B0822C01A0AF0C4
:1043C000F5F8019B083B0193072BD8DC05992200E7
:1043D0000B39C908C9000B000800264D0C325200E9
:1043E000515B0833DB105B189BB253532A19917E43
:1043F0000B30FF2936D1083464002C19A2885200F2
:10440000934200DA93E791E71F231E420BD1089AEB
:1044100073099B181D0C079A6B4053431D0C5D409C
:1044200055432B0C5D40002D0ED001231D420AD0B8
:10443000002E0ED10F4B9A685B680D920C930CA95D
:104440000AA8FFF75FFF6D08049B01360833049349
:10445000ABE70499012EF3D1064BDB680C933B6864
:104460000D93ECE70131C9B29176022900D85EE7DD
:10447000C1E7C046F80A00203B9F5D04012370B5E8
:1044800001240A4D5B4241180A1A002A01DCD84374
:1044900070BD0278534008225E0823405B422B40E7
:1044A000013A7340002AF7D10130EDE72083B8EDDF
:1044B000064B0022190004201A70013218721433BE
:1044C0000C2AF9D1F131063A0A707047240C002009
:1044D00010B504000800FEF7E5FE0320FEF70AFF12
:1044E000FEF704FFFFF7C0F800210800FFF706F908
:1044F000FFF7DEFFFFF744FD07F07CFBFFF7B0F9A5
:10450000014B1C6010BDC0461C0C002010B50400FF
:104510000B2807D8142060430A4C042324180020D9
:10452000237210BD084807F093FF084807F090FF7A
:104530002100074807F08CFF064807F089FF01209B
:10454000EFE7C046240C002090EF000898EF000829
:104550008CF80008B3EF0008027810B504000B2AAD
:1045600011D814235A430F4B9B1842685A60027AA1
:104570001A72427A5A72C268DA60027C1A74427CF9
:1045800000205A7410BD084807F062FF074807F082
:104590005FFF2178064807F05BFF064807F058FFE9
:1045A0000120EFE7240C002090EF000898EF0008AE
:1045B000BAF80008B3EF0008F0B5C9B003900828B6
:1045C0002BD8FBF7BDFD39002A0009006700250143
:1045D0006B012A00F7010302CF4807F039FFCF48EB
:1045E00007F036FFCE4807F033FFCE4C200007F02F
:1045F0002FFFFFF71FFA022814D1CB4807F028FF3E
:10460000CA4807F025FFCA4807F022FF200007F03C
:104610001FFF0622C74BF1331A700398FFF776FF8E
:1046200049B0F0BDFFF706FA0128F6D107F0EAFA23
:10463000C830FEF753FEF0E7BE4C0425E368667A07
:104640000493637C277C012B00D0023D07F0DAFA4B
:10465000C8302B0000903A0030000499FEF734FE79
:10466000B54B0500012805D11870617AB34807F0F1
:10467000EFFED2E70022B2481A7007F0E9FEB14817
:1046800007F0E6FE2900B04807F0E2FEA54807F073
:10469000DFFEC2E7FFF7CEF904900228BDD1FEF796
:1046A00045FEAA4BC6B21F78002F63D0FFF712FE5B
:1046B000802504002D0201002540A54807F0C8FE12
:1046C0006B425D418023DB0223405A425341ED039C
:1046D0009B042D19ED18802323405A425341DB01DE
:1046E000ED182800FFF7EAFD29000F25994807F08B
:1046F000AFFE04ABED1808AF3200290000233800EC
:10470000FFF7CCFAFFF7D2F82B780600059307F0F5
:1047100079FAC830009039003000049B059AFEF702
:10472000D3FD060001286AD10026884B2A788A49E1
:104730008A481E7007F08CFE2B78B3420CD888484C
:1047400007F086FEFFF7B2F80100864807F080FE0A
:104750002000FFF7B3FD60E70F231E4204D1002EB7
:1047600002D07F4807F074FEB95D7F4807F070FE05
:104770000136E1E7FFF782F8002800D14DE7FFF7A7
:10478000A9FD002800D148E70F2404ABE41808ADC8
:10479000320021003B002800FFF780FAFFF786F87F
:1047A00023780600059307F02DFAC8300090290001
:1047B0003000049B059AFEF787FD060001281ED1F4
:1047C00022786A4965483E0007F042FE0F272378A9
:1047D000B34207D8624807F03BFEFFF767F80100D5
:1047E000604844E73E4204D1002E02D05C4807F006
:1047F0002FFEA95D5C4807F02BFE0136E7E7504825
:1048000007F026FE4F4807F023FE310058483BE7EB
:10481000FFF710F90500022800D0FEE60F24FEF78E
:1048200085FD04ABE41808AEC2B2210001233000BC
:10483000FFF734FA4F4B1870FFF738F8237807006A
:10484000049307F0DFF9C8302B00009031003800E6
:10485000049AFEF739FD0500012816D12278464951
:104860003E4807F0F5FD00250F272378AB42B1D96C
:104870003D4204D1002D02D0394807F0E9FD715DB9
:10488000394807F0E5FD0135EFE72D4807F0E0FD79
:104890002C4807F0DDFD29003848F5E60020FFF739
:1048A0007FF8FFF7C7F80500022809D01E4807F077
:1048B000CFFD1E4807F0CCFD314807F0C9FDE5E605
:1048C000FFF7F0FC032807D0174807F0C1FD174891
:1048D00007F0BEFD2B48F0E7FEF728FD0400FEF7C9
:1048E00055FD294F0300210000223800FFF714FD79
:1048F000041E4BDD0120FFF753F8FEF7D7FF06003B
:1049000007F080F9C83000902B0039003000E2B287
:10491000FEF7DAFC81E6C046F3EF0008FBEF000883
:10492000E5F80008B3EF000890EF000898EF0008E2
:10493000F0F80008240C0020210C002017F90008D2
:10494000D7EF0008DFEF000832F90008450000202B
:1049500060F9000877F900088DF9000840F00008B8
:1049600039FC000899F9000853F0000895F900088F
:10497000A6F90008200C0020D4F90008DCF9000892
:104980000BFA00081DFA00081C0B0020194807F05C
:104990005FFD194807F05CFD184807F059FD1848FD
:1049A00007F056FD00210520FEF7A8FE0020FFF7C6
:1049B0007FFC32E6FFF7E4F8012800D02DE6FFF790
:1049C000E9F80138C0B2FFF7F7FB26E6FEF76EFF05
:1049D0000C490B000A000C00A4310D68FA21890073
:1049E0006943B133B0321B781278AC34009121683E
:1049F0008EE7C046D7EF0008DFEF000833FA000863
:104A0000B3EF0008240C0020F0B5C9B00400FEF795
:104A1000A5FC08280DD1604807F01AFD5F4807F093
:104A200017FD5F4807F014FD5E4807F011FD07F021
:104A30008FFE5D4D2B78002B16D0FEF7FBFF022872
:104A400012D105AEFFF7B2F83000FFF703F9367860
:104A5000FEF72CFF864211D114231520FF336B443F
:104A600059786844FEF7CCFD082C30D82000FBF7BD
:104A700053FB4A2E0A3C435D2E777E000021042022
:104A8000FEF73CFEF0E7FEF7D5FF012816D1FEF752
:104A900029FC0400012811D10020FEF78FFFFFF749
:104AA00085F800210220FEF729FE2000FEF76AFFAC
:104AB0000A203E4B1C70FEF7CAFF08E0FEF7BAFF63
:104AC000012808D10020FEF779FFFEF785FF0023BB
:104AD0002B7049B0F0BDFEF705FC0128F7D100208E
:104AE000FEF76CFFFEF702FCF1E7FEF7C7FE0028B9
:104AF000EDD0FEF7C3FEDEE72D4B1B78002BE6D092
:104B0000FEF708FFE3E72B4B197800290CD0FEF7DE
:104B100041FC0121012807D102214018FEF7EEFDDA
:104B20000120FEF72FFCD2E70320F7E7FEF772FF24
:104B30000028CCD06A46052301271370177207F0AE
:104B400059F80400FEF7A4FB03210600380006F024
:104B500075FF2018801901906846FFF7FDFCB6E745
:104B6000FFF70EF80128B2D1FEF7ECFEAFE768467A
:104B7000FFF78EF96B46187859780138C0B2187073
:104B8000FFF780F96B461B78002BA0D06B46587856
:104B9000FEF774FF9BE7C04690EF000898EF00080F
:104BA00045FA0008B3EF0008180B0020450000206C
:104BB000200C0020210C0020F0B585B0FEF7CEFBC4
:104BC000071E00D06DE0384C2500F1352878062806
:104BD00003D0FFF719FF06232B7000230193334BFB
:104BE000260000930423250002932B7A042B11D076
:104BF0006B68039306F0FEFF039B191A002909DC7A
:104C00002B7A029A934205D222000198F132107059
:104C100000910293019B14350133DBB201930C2BFD
:104C2000E3D1029B042B12D1337A042B0AD075688E
:104C300006F0E0FF009B2D1A9D4203DA2300F133BA
:104C40001F7000950137FFB214360C2FECD1FEF720
:104C500095FB051E11DDFA218900FBF705FB451CBC
:104C6000134807F0F5FB134807F0F2FB1248290040
:104C700007F0EEFB114807F0EBFB0098A84200DAC2
:104C80002800002807DD2300F43318600623F134E0
:104C9000237005B0F0BDF1342078FFF78DFC0020C3
:104CA000F7E7C8204000F4E7240C0020FFFF1F00B6
:104CB000D7EF0008DFEF00085CFA0008B3EF000848
:104CC00070B5FFF719FB002806D007F03CFD35480A
:104CD00007F060FB07F03CFDFFF702FB041E0BD062
:104CE00006F088FF241A002C07DC01200021FEF7C3
:104CF00005FD0020FFF7FAFA2B4C07F01FFBFEF72B
:104D00002DFB002809D00738C0B2012805D9274853
:104D1000FEF7F8FAC820400070BD254DF13528781F
:104D2000062803D0FFF770FE06232B70FEF7E0FC89
:104D3000002804D01F4B1B68002B00D09847FEF7BB
:104D4000D7FC0500FEF7D4FCA842EFD8FEF728FFF9
:104D500000281AD0184DFFF7C3FA061E1DD006F022
:104D600049FF341A19D50024144807F071FB144880
:104D700007F06EFB2100134807F06AFB124807F0AA
:104D800067FBFA2080006043C6E7FEF7F9FEFF28C4
:104D9000E0D0FFF711FF0500DDE7AC42E4D92C00BD
:104DA000E2E7C04680841E00FFFFFF7F180B002053
:104DB000240C00201C0C0020FFFF1F00F3EF000854
:104DC000FBEF00087DFA0008B3EF000801235B4207
:104DD00070B58362BB230025DB004562C550124BD2
:104DE0000400C5500433C5509E239B00C55478234E
:104DF000FF33C5548823FF33C5540C4BC5540C4BAB
:104E0000C5540C4BC55402F0CDFA01236377A37748
:104E1000E8239B0025622077E55006F0F3FEE923A6
:104E20009B00E05070BDC046BC050000B905000005
:104E3000B90400001506000010B504000023733407
:104E400023700E4C03550E4C03510E4C03550E4C63
:104E500003550E4C03550E4C03550E4C0355097E5D
:104E60004C1EA141040070342170012101730A49D4
:104E7000435443720260FFF7A9FF10BDF305000021
:104E8000D4050000FE050000E1050000EE0500006D
:104E9000F1050000140600009F0300009E2370B57A
:104EA00004009B00C15C264A264B825CC35C7534BF
:104EB0009201DB019B182278050052019B180F22FA
:104EC0000A409B180200DBB2743213700022227079
:104ED000A324A400025504000326723473352478F9
:104EE0002D78640135406419050078352C70C46A4A
:104EF000260A6C70AE70260C240E2C7104007D34D2
:104F0000EE7023700300848C7E331C800400130039
:104F10000D4A803482188B420DDB02007132127808
:104F2000431880331A70030076331B787730C91822
:104F30000931017070BDD55CE5540133EBE7C04623
:104F4000CC050000CD050000790200009E23F0B5DD
:104F500004009B00C05C2300250076331978053BD4
:104F60001B78813030352A0085B02018002B00D006
:104F700010320026636A029001932700E36A0096CC
:104F800003F0A2FA2000636A773739782A00019388
:104F90007830E36A009603F09BFB3B7804333B7068
:104FA00005B0F0BDF0B50400A5B00CAD6022002145
:104FB000280008AE09F016FB10220021300009F08D
:104FC00011FB704BE75C0593230077330493002FAC
:104FD00000D07DE0012320002B7002F0B5FDA87207
:104FE000200002F0D7FA01236B74674BA873E35CCF
:104FF000AF746B72BC23DB00E15C644BEF73E3586E
:1050000029726B60049B627A1B7820002B74237AD0
:105010009B182B7502F05AFEA881172302AA5C4F39
:105020009B181A002100E05903F0F6FF002801D078
:1050300007F0C6FB02ABDB7D3370FA23DB00F360C5
:10504000059BE35C5A1E934102337370C323DB005C
:10505000E358504A73600123A15C994201D10023B7
:10506000A3542200F370049B31001B78E059009593
:10507000783203F0E3FF002800D07BE02B78012B8F
:1050800065D108220921BC236156A256DB005218C3
:105090000292049A40491278E35C01923A4A3F48EE
:1050A000A25C920052580092384A7168A25807F0E8
:1050B000CFF901223A4BE254230072331B78042BC0
:1050C00056D1B822D200A3580133A35025B0F0BD69
:1050D000012F2DD100232D4F2B70E2592B75049BEE
:1050E0006A601B78627A6B75237A02A99B182D225D
:1050F0005218D3772B4B2000AB620523AB8102F013
:105100006DFA0323AB73BC23DB00E25CF93BFF3B8E
:105110005343AB602B6282235B00EB82224B2861FE
:105120001293224BE1592248AB8307F091F974E7BF
:10513000204807F08DF9204807F08AF91F4807F04A
:1051400087F91F4807F084F907F03AFB65E7002B61
:10515000AFD108220921A2566156049B52181B7830
:1051600000920A4A7168A258164807F071F9A0E740
:10517000154AA8E7172302AA9B181978134807F0C5
:1051800067F9A3E7E1050000E2050000E40500007F
:10519000F40500001C060000AC020108C8FA000873
:1051A000F3050000A86100000F1D2110FF010000A1
:1051B0008FFA000890EF000898EF0008AAFA00089C
:1051C000B3EF000806FB0008BC0500003AFB00082E
:1051D000F0B5A7B00EAD0E000400059200216022CC
:1051E000280009F0FFF9002E40D1824BE35C002B30
:1051F00000D0ACE0012720002F7002F0A5FC5A235C
:1052000004AA9B181870200002F0C4F95E2304AAB7
:105210009B1818705F239B1800221A70FF2304AAA2
:105220002B879D3B9B181F70734B04A9E25A632385
:105230005B181A70BF23DB00E358062B00D206234D
:105240006B651AAF002E16D0012E00D172E06B48AC
:1052500007F0FEF86A4807F0FBF86A4807F0F8F82C
:10526000694807F0F5F807F0ABFA0BE0012E00D023
:10527000ACE0664BBAE7BD23DB00E358EB62644B5E
:10528000E35A2B862000397802F020FDA8861722E9
:10529000604F04AB2100E059D21803F0BDFE079720
:1052A000002801D007F08CFA17270C2200210AA849
:1052B00009F098F904ABFF183B7804AA0EAD1376F9
:1052C0002B780798013B5A1E934104AA5376059BFD
:1052D000514A0B93BF23DB00E358205806930D93EC
:1052E0000095FF23A2180AA903F0A8FE002800D009
:1052F0007AE04A4BB600F6582B78EF6A012B00D0C3
:105300006CE01AAB1B7804AA069359239B181B78F0
:10531000434A9B0020009D5802F03CF9069B0290F6
:10532000009331003B00059A3E48019507F090F844
:1053300027B0F0BD3C4B04A9E35C3B70BE23DB000F
:10534000E25C59235B181A702369EB629AE7012B20
:105350003CD100232B700533AB8604AA59339B182C
:10536000032220001A7002F039F9304B04AA1D9371
:105370002F4BA8631E932E239B182E4ADA87BF2338
:10538000DB00E3586B65002E10D0012E1AD01B48AD
:1053900007F05EF81A4807F05BF81A4807F058F86B
:1053A000194807F055F807F00BFA70E7BD23DB004A
:1053B000E358EB62164BE25CFA239B0053432B63EA
:1053C000AB6464E72369EB62174BF4E70B4807F023
:1053D0003FF80B4807F03CF81748DFE73A00310088
:1053E000164807F035F8A3E73978154807F030F884
:1053F0009EE7C046EE050000FC05000090EF0008A7
:1054000098EF00085AFB0008B3EF0008F105000010
:10541000EC050000F40500009F020000E402010812
:10542000AC02010870FB0008EF05000000FF04015A
:105430000F1D2110FF010000ADFA0008ACFB0008B1
:105440003AFB0008F7B56B46274DDE1D010004004E
:105450003200405903F0E0FD60223378234F53437C
:1054600062592348D21813006A32683300215B5E08
:105470000021525EE15D06F0EBFF1E4B0026E35C6F
:1054800059099B0603D41C4806F0E2FF013E1B4B62
:10549000E35C012B21D11A4BE55C013BE35C2D025F
:1054A000ED18184BE35C1B04ED18174BE35C1B066F
:1054B000ED18E36A9D4212D0144806F0C9FF144863
:1054C00006F0C6FF13482A00E16A06F0C1FF124841
:1054D000013E06F0BDFF0023E3553000FEBD002E67
:1054E000FBD001267642F6E7F40500009E0200009C
:1054F000BFFB00089F020000F0FB0008FE05000053
:10550000A1020000A2020000A3020000F3EF0008C5
:10551000FBEF00080FFC0008B3EF000873B56B4603
:10552000334E04000100DA1C805903F075FD6A4611
:10553000304B304DD178A059E31801AA03F0D4FDC7
:10554000615D042911D0FD22CB1E134234D12A4DB6
:10555000635D022B37D0032B37D0012B37D1274B7C
:10556000019AE2500223635573BD6B46DA786023DB
:105570005343A159D932CB1818006A300688C0208D
:105580006833C0002652FF3218881D4B5200E0528B
:10559000525A1C4B2000E254FFF754FF0028D6D08B
:1055A00006F030FB0190184806F052FF174806F04D
:1055B0004FFF05236355CAE7154806F049FF06F07B
:1055C00021FB0190C3E70323CDE70023CBE711487C
:1055D00006F03EFF104806F03BFF615D0F4806F005
:1055E00037FF094806F034FF07F0EAF8BCE7C04689
:1055F000F4050000FF050000F305000004060000AC
:10560000020600009E020000B3EF00083BFC000809
:1056100072FC000890EF000898EF00088DFC00086D
:10562000014BC05C7047C046F3050000F0B587B081
:105630000400019106F0E6FA01990590200001F0BE
:105640006DFE019B002B10D0012B22D0544806F098
:10565000FFFE544806F0FCFE534806F0F9FE53489E
:1056600006F0F6FE07F0ACF885E0FA21A2698900A1
:105670004A434F4B0492E05C4E4B4F4AE35CA25CC2
:10568000002A12D0FDF74EF902000B0000204B4912
:1056900021E0A2694A4B511CFA2292004A43E05C85
:1056A00001330492E35C474AE9E7093BDBB27D251D
:1056B000042B02D8444A5B009D5E012383401800FE
:1056C000FDF700F9060028000F00FDF7FBF80200C7
:1056D0000B0030003900FBF7BBFE00223B4B0600FD
:1056E0000F00FCF7BBFA002202900391384B300008
:1056F0003900FCF7B3FA0022364BFCF71BFD002201
:1057000006000F0002980399334BFCF7A7FA02003A
:105710000B0030003900FCF70DFD08F08BFE020095
:10572000802000060B1819001000C125FDF794F821
:1057300006222A4BED006051E2520298039908F0CC
:1057400079FEFAF7F3FEBF23DB00E050244BE65866
:10575000059BF61A049BF6186359F31A0DD5019BA5
:10576000002B05D0012B00D07CE700221D4B01E06F
:1057700003221C4BE25407B0F0BD0199200001F058
:10578000CDFD06F03FFA63590199F21A1218200074
:10579000FFF71EFD61591448711A06F059FEEAE739
:1057A00090EF000898EF0008B1FC0008B3EF000884
:1057B000EC050000ED050000EE05000000002040B3
:1057C000EF050000F10500009602010800001840F6
:1057D000000010400000F03F0000E03FFC0500002A
:1057E00004060000F3050000C6FC0008F0B5BF4B3E
:1057F0008FB0C25C0400002504930B2A0ED8BC486D
:1058000006F026FEBB4806F023FE049BBA48E15C86
:1058100006F01EFEB94806F01BFE013D0321B84B01
:10582000B84EE35C00205A090B40B749A2556354B7
:10583000D30707D4B14806F00BFEB44806F008FEC3
:1058400001204042A25D531F59424B412100753156
:105850000B7043190693012A30D1A82325009B0021
:10586000E018049B5035E15C2A000139030089B23D
:1058700002F0BEFE049BA24EE15C04220439C9B2D0
:10588000E154891961180DA808F090FE049B2A00C4
:10589000E15CA0190D9B02F043FF069B03251C1839
:1058A00021009B4806F0D4FD002C04D000252900DF
:1058B000984806F0CDFD28000FB0F0BDE36A964E83
:1058C0000893964B964DE75C013BE35C3F02FF1863
:1058D000944BE35C1B04FF18934BE35C1B06FF181F
:1058E000A9239B00E25C914BA255E35C0993904B8A
:1058F000E35C0A930F231A408E4B6255E31807931B
:105900008D4B0798E11808F051FE635D04991A0069
:10591000615C0C3205950B96884D914219DD864AE3
:10592000E3189B181A78A2239B00E25400236355C6
:10593000089BBB4216D06E4806F08AFD6D4806F003
:1059400087FD39007E4806F083FD6C4806F080FD37
:10595000ACE701236948635506F07AFD794806F003
:1059600077FDE5E7069B002BA0D10A9BA26A1902EE
:10597000099B90B2C91889B2130C1B04814264D8E8
:10598000501C66D1A1622700049B5D4EE15C04229D
:105990000439C9B2E154891961180DA808F006FE4E
:1059A000049BA619E15C0D9B30370193A36A3A0072
:1059B00000933000E36A02F0A1FE002800D075E7F2
:1059C000614BE0500433E0508823FF33E0540B9BDD
:1059D000E25C2023110019401A4204D123007233E3
:1059E0001B78042B0BD001236373002907D02200FE
:1059F00072321278042A02D1A3229200A354059B8A
:105A0000E25C635D002B63D1049BE15C0939891A78
:105A1000C9B2E154A2239B00E55C002D36D1002AD7
:105A200027D12033E018494B3A00E3180293A36AC8
:105A300089B2019301230093E36A02F0ABFD049B5A
:105A40000235E25C424BE25431E701329AD0C91888
:105A500098E7802690B2401AF601B04205DD802218
:105A600052029B185B18A3628DE73A4806F0F0FCDF
:105A70001CE7394806F0ECFC384806F0E9FC3848E9
:105A800006F0E6FC1D4806F0E3FC10E7AA230296A8
:105A90009B000126D0182200A36A00960193E36AB6
:105AA00089B22018403202F075FD059BE55C002D9F
:105AB0000AD02A003500254B0799E01808F076FD3A
:105AC000059BE25C224BE2540122264BE254EEE6B7
:105AD000002A00D1EAE61D4B0799E01808F066FDA0
